:020000040800F2
:1000000028040020150B0008FB010008FD01000872
:1000100001020008050200080902000800000000B3
:100020000000000000000000000000000F020008B7
:100030000D0200080000000011020008F70100088E
:100040001302000815020008170200081902000830
:100050001B0200081D0200081F0200082102000800
:1000600023020008250200082702000829020008D0
:100070002B0200082D0200082F02000831020008A0
:100080003302000835020008370200082F0B000871
:100090002F0B00082F0B00082F0B0008410200084F
:1000A0004302000845020008470200084902000810
:1000B0004B0200084D0200084F02000851020008E0
:1000C00053020008550200085702000859020008B0
:1000D0005B020008F9010008F50100085D02000854
:1000E0005F0200086102000863020008DFF810D018
:1000F00000F022FD0048004743010008AFF30080F4
:1001000028040020002106E0002200E0521CB2F585
:10011000FA5FFBDB491C8142F6D3704708B5012129
:10012000102000F0CDFB03208DF8020010208DF888
:1001300003004002ADF8000069462A4800F004F9C7
:1001400008BD4FF47A41B1F1807F00D31DE021F06A
:100150007F40401E4FF0E022506150170F220028D0
:1001600007DA13071D0E204B00F00F04241F1D5546
:1001700003E013071C0E1D4B1C5400BF00204FF062
:10018000E02290610720106100BFFFF7C7FF10E079
:1001900000224FF40051134800F087F96420FFF764
:1001A000B1FF012251030F4800F07FF96420FFF7EF
:1001B000A9FFEDE7002106E0002200E0521C0C4BF5
:1001C0009A42FBDB491C8142F6D37047002105E0CF
:1001D000002200E0521C082AFCDB491C8142F7D3B4
:1001E000704700000010014018ED00E000E400E05E
:1001F00000127A00704770477047704700BFFEE7F3
:1002000000BFFEE700BFFEE700BFFEE77047704794
:100210007047704770477047704770477047704726
:100220007047704770477047704770477047704716
:100230007047704770477047704770477047704706
:1002400070477047704770477047704770477047F6
:1002500070477047704770477047704770477047E6
:1002600070477047704770477047704770477047D6
:1002700070477047704770477047704770477047C6
:10028000704770477047000010B50446CC48844260
:1002900008D10121042000F02DFB0021042000F0F2
:1002A00029FB46E0C748844208D10121082000F01C
:1002B00021FB0021082000F01DFB3AE0C2488442E7
:1002C00008D10121102000F015FB0021102000F0C2
:1002D00011FB2EE0BD48844208D10121202000F00E
:1002E00009FB0021202000F005FB22E0B8488442F1
:1002F00008D10121402000F0FDFA0021402000F04B
:10030000F9FA16E0B348844208D10121802000F0B8
:10031000F1FA0021802000F0EDFA0AE0AE488442B4
:1003200007D10121801500F0E5FA0021A01500F0A9
:10033000E1FA10BD10B50121084600F0DBFA0021FA
:10034000012000F0D7FA10BD2DE9F041024600254A
:100350000026002000230024002791F803C00CF0A1
:100360000F0591F803C00CF0100CBCF1000F03D086
:1003700091F802C04CEA050591F800C0BCF1000FED
:1003800031D0146800202BE04FF0010C0CFA00F380
:10039000B1F800C00CEA03069E4220D183004FF062
:1003A0000F0C0CFA03F7BC4305FA03FC4CEA0404F7
:1003B00091F803C0BCF1280F06D14FF0010C0CFAE4
:1003C00000FCC2F814C00AE091F803C0BCF1480F69
:1003D00005D14FF0010C0CFA00FCC2F810C0401C13
:1003E0000828D1D31460B1F800C0BCF1FF0F34DD90
:1003F000546800202EE000F1080C4FF0010808FAC4
:100400000CF3B1F800C00CEA03069E4221D1830030
:100410004FF00F0C0CFA03F7BC4305FA03FC4CEA4F
:10042000040491F803C0BCF1280F05D100F1080CB9
:1004300008FA0CF8C2F8148091F803C0BCF1480F18
:1004400007D100F1080C4FF0010808FA0CF8C2F8C7
:100450001080401C0828CED35460BDE8F0814FF6D0
:10046000FF710180022181700421C1707047024632
:10047000002093680B400BB1012000E00020704782
:100480000146886880B2704702460020D3680B405E
:100490000BB1012000E0002070470146C86880B21F
:1004A000704701617047416170470AB1016100E026
:1004B00041617047C16070474FF480320A438261E6
:1004C0008161826182698269704702460020434BE4
:1004D00018684FF68073184040EA021008433F4BFB
:1004E000186070473E49C8617047F0B50A4600235E
:1004F00000240021002500F00046B6F1004F02D193
:10050000364EF16901E0354E7168C0F3034583B2A0
:1005100000F44016B6F5401F08D121F070612F4E4F
:10052000766826F070662D4F7E6012E000F480162B
:10053000B6F5801F06D1032606FA05F4A14341F063
:10054000706106E0460D360103FA06F6B14341F04C
:10055000706122B1460D360103FA06F6314300F010
:100560000046B6F1004F02D11C4EF16101E01B4E76
:100570007160F0BD30B500228B071C0F0F2303FA0A
:1005800004F2164B08338C1053F824309343134C69
:1005900008348D1044F8253023468C1053F824304D
:1005A0008C07240F00FA04F423430C4C08348D10FC
:1005B00044F8253030BD0A49DC310860704700003E
:1005C00000080140000C01400010014000140140EF
:1005D00000180140001C01400020014000000140C3
:1005E00000002042DF48006840F00100DD4908605B
:1005F00008464068DC490840DA4948600846006817
:10060000DA490840D74908600846006820F480208D
:1006100008600846406820F4FE0048604FF41F0060
:1006200088607047CF49096821F48031CD4A116054
:100630001146096821F480211160B0F5803F03D094
:10064000B0F5802F0ED106E0C649096841F480312B
:10065000C44A116007E0C349096841F4A021C14AB6
:10066000116000E000BF00BF704710B501460022D6
:10067000002300204A11012A02D1BA4C236806E067
:10068000022A02D1B74C236A01E0B64C636A01F03A
:100690001F02012494401C400CB1012000E0002006
:1006A00010BD38B5002000900024002500BF312087
:1006B000FFF7DBFF05460098401C00900098B0F55E
:1006C000A06F01D0002DF2D03120FFF7CEFF08B18E
:1006D000012400E00024204638BD01460020A14A44
:1006E000106820F0F80040EAC10010607047A0498F
:1006F00008607047024600209A4B586820F47C102E
:1007000042EA01031843974B5860704798490866BE
:10071000704701460020934A506820F003000843C8
:10072000506070478F48406800F00C0070470146E9
:1007300000208C4A506820F0F00008435060704759
:1007400001460020874A506820F4E060084350606A
:10075000704701460020834A506820F4605040EA08
:10076000C1005060704729B17E4A527A02437D4BE6
:100770005A7204E07B4A527A82437A4B5A7270472B
:100780007B49D8310860704701460020754A50689F
:1007900020F440400843506070470021714A2032E5
:1007A0001170704A82F82010012802D004280AD162
:1007B00004E001216B4A2032117005E00521694AED
:1007C0002032117000E000BF00BF70476949086027
:1007D00070476449096A0143624A1162704765497A
:1007E00044390860704730B50021002200240023FE
:1007F0005C4D6D6805F00C0121B1042905D0082974
:1008000023D105E05C4D056022E05B4D05601FE0F3
:10081000544D6D6805F47012524D6D6805F48034C6
:10082000022505EB92421CB9544D554305600BE07F
:100830004C4D6D6805F400351DB1504D55430560B4
:1008400002E04D4D5543056002E04B4D056000BF91
:1008500000BF444D6D6805F0F0010909484D6B5C1F
:100860000568DD4045603F4D6D6805F4E061090AAB
:10087000434D6B5C4568DD4085603A4D6D6805F41D
:100880006051C90A3E4D6B5C4568DD40C560354D21
:100890006D6805F44041890B3A4D6B5CC568B5FB4A
:1008A000F3F5056130BD29B12E4A526902432D4B43
:1008B0005A6104E02B4A526982432A4B5A617047BD
:1008C00029B1284A92690243264B9A6104E0254ADD
:1008D00092698243234B9A61704729B1214AD269B8
:1008E0000243204BDA6104E01E4AD26982431D4B69
:1008F000DA61704729B11B4AD2680243194BDA60AA
:1009000004E0184AD2688243164BDA60704729B176
:10091000144A12690243134B1A6104E0114A126926
:100920008243104B1A617047124940390860704782
:100930000F49C86470470B49C87170470948406A3D
:1009400040F0807007494862704701460020054A20
:1009500092680A400AB1012000E000207047014976
:1009600088727047001002400000FFF8FFFFF6FE9B
:10097000000042428004424200127A0000093D0019
:10098000000000201000002008B500200090594809
:10099000006840F01000574908600846006820F0E1
:1009A000030008600846006840F0020008605248F2
:1009B00040685149486008464068486008464068B9
:1009C00040F4806048600846406820F47C1048602D
:1009D0000846406840F4601048600846006840F0EF
:1009E0008070086000BF4448006800F00070002874
:1009F000F9D04148406820F003003F49486008466C
:100A0000406840F00200486000BF3B48406800F08A
:100A10000C000828F9D108BD10B5FFF7B5FF10BDCF
:100A200010B53548006840F00100334908600846B9
:100A300040683249084030494860084600683049FB
:100A400008402D4908600846006820F480200860AE
:100A50000846406820F4FE0048604FF41F0088609C
:100A6000FFF7DAFF10BD10B5002100200022224B55
:100A70005B6803F00C0121B1042906D0082928D1B4
:100A800007E0204B204C236027E01E4B1E4C2360C8
:100A900023E0194B5B6803F47010174B5B6803F499
:100AA0008032022303EB904022B9184B4343164C8B
:100AB00023600DE0104B5B6803F4003323B1134B4C
:100AC0004343114C236003E00E4B43430E4C236021
:100AD00003E00C4B0C4C236000BF00BF064B5B686F
:100AE000C3F303130A4CE15C074B1B68CB40064C75
:100AF000236010BD00200240001002400000FFF8FB
:100B0000FFFFF6FE00127A001400002000093D00ED
:100B1000180000200648804706480047FEE7FEE729
:100B2000FEE7FEE7FEE7FEE7FEE7FEE7FEE7FEE79D
:100B3000210A0008ED000008064C074D06E0E068B9
:100B400040F0010394E8070098471034AC42F6D314
:100B5000FFF7D0FA7C0B00089C0B000802E008C8E5
:100B6000121F08C1002AFAD170477047002001E027
:100B700001C1121F002AFBD1704700009C0B000826
:100B800000000020280000005C0B0008C40B0008D7
:100B900028000020000400006C0B0008000000008A
:100BA00001020304010203040607080902040608FF
:100BB00000127A000000000000000000010203049F
:040BC0000607080913
:04000005080000ED02
:00000001FF
